:020000040800F2
:10000000F0160020DD010008E5010008E701000806
:10001000E9010008EB010008ED0100080000000004
:10002000000000000000000000000000EF010008D8
:10003000F101000800000000F30100082506000897
:10004000F7010008F7010008F7010008F7010008B0
:10005000F7010008F7010008F7010008F7010008A0
:10006000F7010008F7010008F7010008F701000890
:10007000F7010008F7010008F7010008F701000880
:10008000F7010008F7010008F7010008F701000870
:10009000F7010008F7010008F7010008F701000860
:1000A000F7010008F7010008F7010008F701000850
:1000B000F7010008F7010008F7010008F701000840
:1000C000F7010008F7010008F7010008F701000830
:1000D000F7010008D1060008F7010008F701000841
:1000E000F7010008F7010008F7010008F701000810
:1000F000F7010008F7010008F7010008F701000800
:100100000000000000000000F7010008F7010008EF
:100110000000000000000000F7010008F7010008DF
:10012000F7010008F7010008F7010008F7010008CF
:10013000F7010008F7010008F701000800F002F8D5
:1001400000F03CF80AA090E8000C82448344AAF135
:100150000107DA4501D100F031F8AFF2090EBAE833
:100160000F0013F0010F18BFFB1A43F001031847EB
:100170000C0C00002C0C0000103A24BF78C878C189
:10018000FAD8520724BF30C830C144BF04680C609D
:10019000704700000023002400250026103A28BFE5
:1001A00078C1FBD8520728BF30C148BF0B607047E9
:1001B0001FB500F0DDFD1FBD10B510BD00F058F8F3
:1001C0001146FFF7F5FF00F025FD00F076F803B4C7
:1001D000FFF7F2FF03BC00F07DF8000009488047FC
:1001E00009480047FEE7FEE7FEE7FEE7FEE7FEE719
:1001F000FEE7FEE7FEE7FEE704480549054A064B31
:10020000704700004D0600083D010008F010002076
:10021000F0160020F0120020F01200204FF0000233
:1002200000B5134694469646203922BFA0E80C50EC
:10023000A0E80C50B1F12001BFF4F7AF090728BFC7
:10024000A0E80C5048BF0CC05DF804EB890028BF43
:1002500040F8042B08BF704748BF20F8022B11F06C
:10026000804F18BF00F8012B7047704770477047E8
:10027000754600F02BF8AE4605006946534620F05F
:100280000700854618B020B5FFF7B6FFBDE820404F
:100290004FF000064FF000074FF000084FF0000B42
:1002A00021F00701AC46ACE8C009ACE8C009ACE8F5
:1002B000C009ACE8C0098D46704710B50446AFF3DD
:1002C00000802046BDE81040FFF781BF004870471E
:1002D0008C10002001491820ABBEFEE7260002006A
:1002E000704700004FF0E021096941F004014FF030
:1002F000E02211610249B0FBF1F1024A116070473E
:1003000040420F0014000020F0B5154600240022E2
:100310000026052831D2DFE800F0030C151E270067
:10032000544FBF6947F00407DFF848C1CCF8187094
:1003300023E0504FBF6947F00807DFF838C1CCF819
:1003400018701AE04B4FBF6947F01007DFF824C15F
:10035000CCF8187011E0474FBF6947F02007DFF86D
:1003600014C1CCF8187008E0424FBF6947F040074D
:10037000DFF800C1CCF8187000BF00BF03F00F0415
:1003800003F01007102F00D12C43082935D23A4F23
:1003900057F820703A6889000F2707FA01F6B24330
:1003A00004FA01F73A43482B10D1334F57F8207025
:1003B0003F694FF0010C0CFA01FC47EA0C07DFF82B
:1003C000B8C05CF820C0CCF8107011E0282B0FD119
:1003D000294F57F820707F694FF0010C0CFA01FC8F
:1003E00047EA0C07DFF890C05CF820C0CCF8147026
:1003F000214F57F820703A603AE0082938D3102985
:1004000036D21D4F57F820707A68A1F10807B9005D
:100410000F2707FA01F6B24304FA01F73A43482BD3
:1004200010D1154F57F820703F694FF0010C0CFAAE
:1004300001FC47EA0C07DFF840C05CF820C0CCF8AC
:10044000107011E0482B0FD10B4F57F820707F69C7
:100450004FF0010C0CFA01FC47EA0C07DFF818C05A
:100460005CF820C0CCF81470034F57F820707A6005
:10047000F0BD0000001002400000002010B532B1B5
:1004800001238B40054C54F82040236105E00123F3
:100490008B40024C54F82040636110BD00000020E6
:1004A0002DE9F0410C46002100260F25012B20D11B
:1004B000164F3F6807F4E067C7F5E067390AC1F1F6
:1004C0000406CD4004FA06F7394302EA050739432A
:1004D00009010F4F395400F01F0C012707FA0CF7E0
:1004E0004FEA601C4FEA8C0C0CF1E02CCCF8007148
:1004F0000AE000F01F0C012707FA0CF7DFF814C020
:100500004FEA60184CF82870BDE8F0810CED00E06F
:1005100000E400E080E100E002490143024A11608A
:10052000704700000000FA050CED00E010B500F087
:1005300001F810BD1CB500200190009036480068FD
:1005400040F480303449086000BF3348006800F44C
:10055000003000900198401C0190009818B9019853
:10056000B0F5405FF1D141F2883000F0A5F92A489A
:10057000006800F4003010B10120009001E000207C
:1005800000900098012845D12348406822494860DE
:100590000846406820F4605048600846406840F4CF
:1005A000005048600846406820F4E0604860084613
:1005B000406840F480604860084640681749084039
:1005C0001549486008464068154908431249486083
:1005D0000846006840F08070086000BF0E48006860
:1005E00000F000700028F9D00B48406820F00300AC
:1005F000094948600846406840F00200486000BF72
:100600000548406800F00C000828F9D14FF4FA7052
:1006100000F052F91CBD000000100240FFFFC01F97
:1006200000001DA010B5002407480068401C0649C2
:1006300008600846006800F053FA0446214600208E
:1006400000F0C0FA10BD00001C00002010B51A48D0
:10065000006840F47000184908601848006840F0CD
:1006600001001649086008464068154908401349CA
:100670004860084600681349084010490860084669
:10068000006820F480200860084640680E49084051
:100690000A4948600846006B0C490840074908634E
:1006A0004FF41F008860FFF741FF4FF000600249E0
:1006B0008039086010BD000088ED00E000100240A5
:1006C0000C00FFE8FFFFF6FEFFFF001700FFFEFE35
:1006D00010B5002440F22551002000F0DDFA012879
:1006E0003BD1002000F03AFBC4B21C48008800F463
:1006F000004090BB1948008800F4804060B10A2C8B
:1007000006D11648008840F400401449088024E0CF
:1007100000201249088020E00D2C06D10F480088E7
:1007200040F480400D49088017E00C480088C0F371
:100730000D000B490C5409480088401C07490880EB
:1007400001220D210320FFF799FE04480088B0F52F
:10075000805F02DD00200149088010BD34000020C8
:100760008C00002001290AD10A4A52F820209289DF
:1007700042F40052074B53F820309A8109E0054AB1
:1007800052F82020928922F40052024B53F8203074
:100790009A81704720000020F0B503460020002415
:1007A000002600250E4F57F82300C1F3421401F034
:1007B0001F060127B740BDB2012C01D10C3004E067
:1007C000022C01D1103000E01430012A03D1076857
:1007D0002F43076002E00768AF430760F0BD0000E9
:1007E000200000202DE9F05F0446884616461F468B
:1007F000DDE90BABDDF82890052C27D2DFE804F00B
:10080000030A11181F002A48806940F480402849D3
:1008100088611CE02648C06940F400302449C86162
:1008200015E02348C06940F480202149C8610EE0EA
:100830001F48C06940F400201D49C86107E01C48FA
:10084000C06940F480101A49C86100E000BF00BFD1
:10085000184850F82400858942F6F310054046EA0E
:10086000090040EA0A000543124951F824108D811D
:10087000104850F82400058A4CF6FF7005403D43AF
:100880000C4951F824100D820A4850F82400858A3A
:1008900040F2FF40054045EA0B05064951F8241097
:1008A0008D824146204600F05FF9BDE8F09F0000D0
:1008B0000010024020000020002100E0491C81427D
:1008C000FCD3704700E000BF064A52F8202012888F
:1008D00002F08002002AF6D0024A52F820209180CD
:1008E000704700002000002001460020144A1268D2
:1008F0004FF47A735A434FF0E0235A611A46526913
:100900009A611A46126942F001021A610AE000BFB8
:100910004FF0E022106900F001021AB100F48032B9
:10092000002AF5D00A1EA1F10101F0D14FF0E0221A
:10093000126922F001024FF0E0231A6170470000B3
:10094000140000202DE9F047024600200023002576
:10095000002600240027002180468446DFF870919D
:10096000D9F80490DFF86CA109EA0A0404F0C04841
:1009700004F4701C48EA0C09B9F1000101D1022706
:1009800006E0322903D2012901D94F1C00E04F1E95
:10099000DFF83C91D9F8049009F0F00909F00F0A4A
:1009A000BAF1000F20D14FEA2919B9F1100F1BD26B
:1009B000DFE809F0081A1A1A1A1A1A1A0A0C0E1A7B
:1009C0001012141701230FE002230DE004230BE0A3
:1009D000082309E0402307E0802305E04FF48073FB
:1009E00002E04FF4007300BF00BFDFF8E490D9F8D5
:1009F000049009F4E0694FEA1929B9F1080F0FD200
:100A0000DFE809F0040E0E0E06080A0C012507E0C7
:100A1000022505E0042503E0082501E0102500BFBC
:100A200000BFDFF8AC90D9F8049009F460594FEAA0
:100A3000D929B9F1080F0FD2DFE809F0040E0E0E24
:100A400006080A0C012607E0022605E0042603E05A
:100A5000082601E0102600BF00BF092A34D2DFE8D3
:100A600002F0061A212A0D0B1714050000BFDFF84B
:100A70006890D9F8000027E0184825E0DFF8589082
:100A8000D9F80090B9FBF7F000BF49F640401BE0F1
:100A90004FF4004018E0DFF84090D9F80090B9FB1F
:100AA000F3F011E0DFF83090D9F80090B9FBF3F9DA
:100AB000B9FBF5F008E0DFF82090D9F80090B9FB19
:100AC000F3F9B9FBF6F000BF00BFBDE8F087000006
:100AD0000010024000003C607800002000127A0004
:100AE00070B590B0054640216846FFF797FB00249B
:100AF000002600BF0BE00A20B5FBF0F100FB11500F
:100B000030300DF804000A20B5FBF0F5641C402CD1
:100B100001D2002DEFD107E0601E1DF80020304605
:100B2000761C09490A54641E002CF5D12020064980
:100B300088552021044A701C11540021B01C115406
:100B4000104610B070BD00003600002010B5102314
:100B500002220D210320FFF7D7FB01220D210320E4
:100B6000FFF78CFC10BD00002DE9F04705468946D3
:100B700025B90220FFF7E6FE044603E00320FFF755
:100B8000E1FE044604EBC40000EB04104FEA8901C7
:100B9000B0FBF1F76420B7FBF0F0060130096421E7
:100BA00001FB1078322000EB0810B0FBF1F000F0F0
:100BB0000F000643024951F825100E81BDE8F08769
:100BC0002000002030B5ADF5805D05460C460023C1
:100BD00009E014F8010B0DF803001DF8030008B933
:100BE0004FF480535B1CB3F5805FF2D300230AE01F
:100BF0001DF803102846FFF765FE1DF8030008B92D
:100C00004FF480535B1CB3F5805FF1D30DF5805D2D
:100C100030BD00000220FFF795FE0546124800682F
:100C2000FFF760FB012000F023F8FFF78FFF4FF480
:100C3000A060FFF771FC4FF4E13000F065F812E0BE
:100C40006420FFF751FE0948008800F4004050B1CD
:100C50002846FFF745FF044621460020FFF7B2FF74
:100C6000002002490880EBE77800002034000020D3
:100C7000012808D14FF0E021096941F002014FF04D
:100C8000E022116107E04FF0E021096921F0020143
:100C90004FF0E02211617047F0B5024600240023B6
:100CA000002600270025C1F3421401F01F03012094
:100CB000984083B2012C06D1124850F82200808956
:100CC00000EA03060EE0022C06D10E4850F822007E
:100CD000008A00EA030605E00A4850F82200808AEC
:100CE00000EA0306C1F30F270120B84085B205488A
:100CF00050F822000088054016B10DB10120F0BD6A
:100D00000020FCE7200000203EB504461823022204
:100D100009210020FFF7F8FA042300220A211046D7
:100D2000FFF7F2FA00200C21CDE90001034602464C
:100D300021460290FFF756FD012240F22551002086
:100D4000FFF72AFD01210020FFF70CFD01230222FD
:100D500011462520FFF7A4FB3EBD000001460348D5
:100D600050F821008088C0F3080070472000002060
:100D70004FF04070E1EE100A704700009C0D000833
:100D8000000000208C00000078010008280E0008F8
:100D90008C00002064160000940100080008014047
:100DA000000C0140001001400014014000180140F7
:100DB00000000000000000000000000000380140BA
:100DC0000044004000480040004C004000500040FB
:100DD000000068656C6C6F000000000000000000FF
:100DE0000000000000000000000000000000000003
:100DF00000000000000000000000000000000000F3
:100E000000000000000000000000000000000000E2
:100E10000000000000B0710B0000000000000000A6
:080E20000102030406070809A2
:040000050800013DB1
:00000001FF
