:020000040800F2
:10000000F0260020F1010008F9010008FB010008BA
:10001000FD010008FF0100080102000800000000C7
:1000200000000000000000000000000003020008C3
:100030000502000800000000070200082907000868
:100040000B0200080B0200080B0200080B0200085C
:100050000B0200080B0200080B0200080B0200084C
:100060000B0200080B0200080B0200080B0200083C
:100070000B0200080B0200080B0200080B0200082C
:100080000B0200080B0200080B0200080B0200081C
:100090000B0200080B0200080B0200080B0200080C
:1000A0000B0200080B0200080B0200080B020008FC
:1000B0000B0200080B0200080B0200080B020008EC
:1000C0000B0200080B0200080B0200080B020008DC
:1000D0000B020008D50700080B0200080B020008FD
:1000E0006D0300080B0200080B0200080B02000859
:1000F0000B0200080B0200080B0200080B020008AC
:100100000B0200080B0200080B0200080B0200089B
:100110000B0200080B0200080B0200080B0200088B
:100120000B0200080B0200080B0200080B0200087B
:100130000B0200080B0200080B0200080B0200086B
:100140000B0200080B0200080B0200080B0200085B
:1001500000F002F800F03CF80AA090E8000C82449D
:100160008344AAF10107DA4501D100F031F8AFF27A
:10017000090EBAE80F0013F0010F18BFFB1A43F085
:1001800001031847180D0000380D0000103A24BF75
:1001900078C878C1FAD8520724BF30C830C144BFEC
:1001A00004680C607047000000230024002500262E
:1001B000103A28BF78C1FBD8520728BF30C148BFCA
:1001C0000B6070471FB500F063FE1FBD10B510BD7A
:1001D00000F058F81146FFF7F5FF00F027FD00F09A
:1001E00076F803B4FFF7F2FF03BC00F07DF80000DF
:1001F0000948804709480047FEE7FEE7FEE7FEE7BB
:10020000FEE7FEE7FEE7FEE7FEE7FEE704480549F6
:10021000054A064B704700005107000851010008CD
:10022000F0200020F0260020F0220020F022002004
:100230004FF0000200B5134694469646203922BF7F
:10024000A0E80C50A0E80C50B1F12001BFF4F7AFCA
:10025000090728BFA0E80C5048BF0CC05DF804EBAC
:10026000890028BF40F8042B08BF704748BF20F81A
:10027000022B11F0804F18BF00F8012B7047704718
:1002800070477047754600F02BF8AE46050069468A
:10029000534620F00700854618B020B5FFF7B6FF9B
:1002A000BDE820404FF000064FF000074FF0000877
:1002B0004FF0000B21F00701AC46ACE8C009ACE8F8
:1002C000C009ACE8C009ACE8C0098D46704710B55C
:1002D0000446AFF300802046BDE81040FFF781BF21
:1002E000004870479020002001491820ABBEFEE76F
:1002F000260002007047000010B5114A926942F0D2
:1003000001020F4B9A614FEAB3328B1052F823204F
:100310008B071C0F0123A3409A430A4B8C1043F810
:1003200024201A468B1052F823208B071B0F00FA4B
:1003300003F31343034A8C1042F8243010BD00002D
:1003400000100240080001404FF0E021096941F02F
:1003500004014FF0E02211610249B0FBF1F1024AC1
:100360001160704740420F001400002010B50A20B1
:1003700000F016FB012841D12148008800F400401C
:1003800038BB1F48008800F4804098B11C480088A2
:10039000C0F30D00401E1B49085C0A2806D118480E
:1003A000008840F400401649088024E000201449E9
:1003B000088020E012480088C0F30D00401E11495B
:1003C000085C0D2806D10E48008840F480400C4996
:1003D000088010E0002000F0C7FC09480088401C9D
:1003E0000749088008460088C0F30D00B0F5805F1B
:1003F00001DD002008800A2000F04EFA10BD000048
:100400007600002090100020F0B515460024002250
:100410000026052831D2DFE800F0030C151E270066
:10042000554FBF6947F00407DFF84CC1CCF818708E
:1004300023E0514FBF6947F00807DFF83CC1CCF813
:1004400018701AE04C4FBF6947F01007DFF828C159
:10045000CCF8187011E0484FBF6947F02007DFF86B
:1004600018C1CCF8187008E0434FBF6947F0400747
:10047000DFF804C1CCF8187000BF00BF03F00F0410
:1004800003F01007102F00D12C43082936DA3B4F18
:1004900057F820703A684FF6FF7707EA81010F2777
:1004A00007FA01F6B24304FA01F73A43482B10D198
:1004B000324F57F820703F694FF0010C0CFA01FCE5
:1004C00047EA0C07DFF8B4C05CF820C0CCF8107025
:1004D0000FE0282B0DD1294F57F82070D7F814C002
:1004E00001278F404CEA070C244F57F82070C7F8BB
:1004F00014C0224F57F820703A603BE0082939DBDE
:10050000102937DA1D4F57F820707A68A1F10807D3
:100510004FF6FF7C0CEA87010F2707FA01F6B2437A
:1005200004FA01F73A43482B10D1144F57F82070C2
:100530003F694FF0010C0CFA01FC47EA0C07DFF8A9
:100540003CC05CF820C0CCF810700FE0482B0DD1F7
:100550000A4F57F82070D7F814C001278F404CEA93
:10056000070C064F57F82070C7F814C0034F57F810
:1005700020707A60F0BD00000010024000000020F2
:1005800010B532B101238B40054C54F82040236153
:1005900005E001238B40024C54F82040636110BDFC
:1005A000000000202DE9F0410C46002100260F2517
:1005B000012B20D1164F3F6807F4E067C7F5E067CD
:1005C000390AC1F10406CD4004FA06F7394302EABC
:1005D0000507394309010F4F395400F01F0C01275B
:1005E00007FA0CF74FEA601C4FEA8C0C0CF1E02C78
:1005F000CCF800710AE000F01F0C012707FA0CF795
:10060000DFF814C04FEA60184CF82870BDE8F0819C
:100610000CED00E000E400E080E100E0024901436D
:10062000024A1160704700000000FA050CED00E07E
:1006300010B500F001F810BD1CB50020019000902D
:100640003648006840F480303449086000BF3348C1
:10065000006800F4003000900198401C0190009860
:1006600018B90198B0F5405FF1D141F2883000F03F
:10067000FBF82A48006800F4003010B10120009017
:1006800001E0002000900098012845D123484068EF
:10069000224948600846406820F460504860084697
:1006A000406840F4005048600846406820F4E0602C
:1006B00048600846406840F48060486008464068EA
:1006C00017490840154948600846406815490843DD
:1006D000124948600846006840F08070086000BF1A
:1006E0000E48006800F000700028F9D00B48406800
:1006F00020F00300094948600846406840F00200C5
:10070000486000BF0548406800F00C000828F9D197
:100710004FF4FA7000F0A8F81CBD00000010024071
:10072000FFFFC01F00001DA010B50024074800688F
:10073000401C064908600846006800F00DFA0446AF
:100740002146002000F04BFA10BD00001C000020E4
:1007500010B51A48006840F470001849086018483D
:10076000006840F0010016490860084640681549D5
:10077000084013494860084600681349084010497A
:1007800008600846006820F4802008600846406839
:100790000E4908400A4948600846006B0C49084069
:1007A000074908634FF41F008860FFF741FF4FF0CF
:1007B000006002498039086010BD000088ED00E04B
:1007C000001002400C00FFE8FFFFF6FEFFFF0017DD
:1007D00000FFFEFE10B5002440F22551002000F07D
:1007E0008BFA01283BD1002000F0FCFAC4B21C486F
:1007F000008800F4004090BB1948008800F4804055
:1008000060B10A2C06D11648008840F40040144913
:10081000088024E000201249088020E00D2C06D139
:100820000F48008840F480400D49088017E00C48CC
:100830000088C0F30D000B490C5409480088401C87
:100840000749088001220D210320FFF799FE044883
:100850000088B0F5805F02DD00200149088010BDEE
:100860007400002090000020002100E0491C81421B
:10087000FCD3704700E000BF064A52F820201288DF
:1008800002F08002002AF6D0024A52F8202091801D
:10089000704700006000002003490968022282407E
:1008A0001143014A116070471404014001460020C1
:1008B000104A12684A434FF0E0235A6100229A61BD
:1008C0001A46126942F001021A6100BF4FF0E0229D
:1008D000106900F001021AB100F48032002AF5D04C
:1008E0004FF0E022126922F001024FF0E0231A617A
:1008F000704700001400002030B5D3B339B1274C45
:100900002468012585402C43244D2C6008E0234CAD
:10091000241F2468012585402C43204D2D1F2C6069
:100920004AB91E4C08342468012585402C431B4DD0
:1009300008352C6030E0012A09D1184C241D2468A8
:10094000012585402C43154D2D1D2C6024E0134CB2
:1009500008342468012585402C43104D08352C604F
:100960002C1F25680124844025430C4C241D256040
:1009700012E0FFE749B1094C241F24680125854096
:10098000AC43064D2D1F2C6006E0044C2568012465
:100990008440A543014C256030BD000004040140A3
:1009A00001460548006802228A40104308B1012030
:1009B00070470020FCE70000140401402DE9F047D7
:1009C00002460020002300250026002400270021E5
:1009D00080468446DFF87091D9F80490DFF86CA166
:1009E00009EA0A0404F0C04804F4701C48EA0C093F
:1009F000B9F1000101D1022706E0322903D2012911
:100A000001D94F1C00E04F1EDFF83C91D9F804904B
:100A100009F0F00909F00F0ABAF1000F20D14FEAEE
:100A20002919B9F1100F1BD2DFE809F0081A1A1AB8
:100A30001A1A1A1A0A0C0E1A1012141701230FE0B0
:100A400002230DE004230BE0082309E0402307E024
:100A5000802305E04FF4807302E04FF4007300BF81
:100A600000BFDFF8E490D9F8049009F4E0694FEA98
:100A70001929B9F1080F0FD2DFE809F0040E0E0EA4
:100A800006080A0C012507E0022505E0042503E01D
:100A9000082501E0102500BF00BFDFF8AC90D9F8B1
:100AA000049009F460594FEAD929B9F1080F0FD21F
:100AB000DFE809F0040E0E0E06080A0C012607E016
:100AC000022605E0042603E0082601E0102600BF08
:100AD00000BF092A34D2DFE802F0061A212A0D0BE2
:100AE0001714050000BFDFF86890D9F8000027E070
:100AF000184825E0DFF85890D9F80090B9FBF7F0D6
:100B000000BF49F640401BE04FF4004018E0DFF81A
:100B10004090D9F80090B9FBF3F011E0DFF8309085
:100B2000D9F80090B9FBF3F9B9FBF5F008E0DFF86C
:100B30002090D9F80090B9FBF3F9B9FBF6F000BFAB
:100B400000BFBDE8F08700000010024000003C60DC
:100B50007C00002000127A0070B590B0054640215C
:100B60006846FFF765FB0024002600BF0BE00A2063
:100B7000B5FBF0F100FB115030300DF804000A20F5
:100B8000B5FBF0F5641C402C01D2002DEFD107E03D
:100B9000601E1DF800203046761C09490A54641E68
:100BA000002CF5D12020064988552021044A701CCC
:100BB00011540021B01C1154104610B070BD00003B
:100BC0002000002010B5102302220D210320FFF782
:100BD0001BFC01220D210320FFF7D2FC10BD30B514
:100BE000ADF5805D05460C46002309E014F8010BC5
:100BF0000DF803001DF8030008B94FF480535B1C87
:100C0000B3F5805FF2D300230AE01DF803102846F5
:100C1000FFF730FE1DF8030008B94FF480535B1C4A
:100C2000B3F5805FF1D30DF5805D30BD0820FFF78F
:100C3000C5FE0D480068FFF787FBFFF7C3FF4FF4C1
:100C4000A060FFF7EBFC4FF4E13000F0B5F80AE0EC
:100C50000648008800F4004028B1002000F0CCF8DD
:100C6000002002490880F3E77C0000207600002085
:100C70000246064850F82200806801238B40184045
:100C800008B1012070470020FCE7000000000020B0
:100C900010B50446052C0DD2DFE804F00308090A5C
:100CA0000B000A210020FFF7E3FF10BD00BF00BFCB
:100CB00000BF00BF00BF0020F7E710B510230222DD
:100CC00009210020FFF7A0FB042300220A2110467F
:100CD000FFF79AFB0A210020FFF70EFB01230022F9
:100CE00011460A20FFF708FE0123032202212820D3
:100CF000FFF758FC10BD0000F0B5024600240023A9
:100D0000002600270025C1F3421401F01F03012033
:100D1000984083B2012C06D1124850F822008089F5
:100D200000EA03060EE0022C06D10E4850F822001D
:100D3000008A00EA030605E00A4850F82200808A8B
:100D400000EA0306C1F30F270120B84085B2054829
:100D500050F822000088054016B10DB10120F0BD09
:100D60000020FCE76000002070B505460E480088B2
:100D7000FFF79CFD002414E00C480088FFF796FD67
:100D80002846FFF785FFA04009490988C1F30D01F6
:100D9000084A515C084306490988C1F30D015054C3
:100DA000641C082CE8DB70BD7A000020780000206D
:100DB000760000209010002010B504460648B0FBD5
:100DC000F4F006490880088800EBD0714910044A05
:100DD0001180FFF772FF10BD40420F007800002025
:100DE0007A0000200146034850F821008088C0F3B3
:100DF000080070476000002070B50546002406E03A
:100E00002046641C044A115C284600F007F802489A
:100E1000005D0028F4D170BD901000202DE9F04154
:100E200007460D460024A0462C46E4B244F48074E4
:100E30004FF6FF7000EA440400260DE044FA06F085
:100E400000F001084146384600F00CF804480088DC
:100E5000FFF72CFD701C86B20A2EEFDBBDE8F08197
:100E60007800002070B504460D46052C0ED2DFE850
:100E700004F003090A0B0C002A4609210020FFF7A1
:100E80007FFB03E000BF00BF00BF00BF00BF70BD1D
:100E90004FF04070E1EE100A70470000BC0E0008F1
:100EA00000000020900000008C0100084C0F00089A
:100EB0009000002060260000A80100080008014002
:100EC000000C0140001001400014014000180140D6
:100ED00000000000000000000000000068656C6C6D
:100EE0006F00000000000000000000000000000093
:100EF00000000000000000000000000000000000F2
:100F000000000000000000000000000000000000E1
:100F10000000000000000000000000000038014058
:100F20000044004000480040004C00400050004099
:100F3000000000000000000000B0710B0000000085
:0C0F40000000000001020304060708097D
:04000005080001519D
:00000001FF
